:020000040000fa
:080000000002040000000000f2
:020000040000fa
:0400080046030000ab
:020000040000fa
:04000c0046030000a7
:020000040000fa
:0400100046030000a3
:020000040000fa
:04001400460300009f
:020000040000fa
:04001800460300009b
:020000040000fa
:04001c004603000097
:020000040000fa
:040020004603000093
:020000040000fa
:04002400460300008f
:020000040000fa
:04002800460300008b
:020000040000fa
:04002c004603000087
:020000040000fa
:040030004603000083
:020000040000fa
:04003400460300007f
:020000040000fa
:04003800460300007b
:020000040000fa
:04003c004603000077
:020000040000fa
:040040004603000073
:020000040000fa
:04004400460300006f
:020000040000fa
:04004800460300006b
:020000040000fa
:04004c004603000067
:020000040000fa
:040050004603000063
:020000040000fa
:04005400460300005f
:020000040000fa
:04005800460300005b
:020000040000fa
:04005c00c8020000d6
:020000040000fa
:040060004603000053
:020000040000fa
:04006400460300004f
:020000040000fa
:04006800460300004b
:020000040000fa
:04006c004603000047
:020000040000fa
:040070004603000043
:020000040000fa
:04007400460300003f
:020000040000fa
:04007800460300003b
:020000040000fa
:04007c004603000037
:020000040000fa
:040080004603000033
:020000040000fa
:04008400460300002f
:020000040000fa
:04008800460300002b
:020000040000fa
:04008c004603000027
:020000040000fa
:040090004603000023
:020000040000fa
:04009400460300001f
:020000040000fa
:04009800460300001b
:020000040000fa
:04009c004603000017
:020000040000fa
:0400a0004603000013
:020000040000fa
:0400a400460300000f
:020000040000fa
:0400a800460300000b
:020000040000fa
:0400ac004603000007
:020000040000fa
:0400b0004603000003
:020000040000fa
:0400b40046030000ff
:020000040000fa
:0400b80046030000fb
:020000040000fa
:0400bc0046030000f7
:020000040000fa
:0400c00046030000f3
:020000040000fa
:0400c40046030000ef
:020000040000fa
:0400c80046030000eb
:020000040000fa
:0400cc0046030000e7
:020000040000fa
:0400d00046030000e3
:020000040000fa
:0400d40046030000df
:020000040000fa
:0400d80046030000db
:020000040000fa
:0400dc0046030000d7
:020000040000fa
:0400e00046030000d3
:020000040000fa
:0400e40046030000cf
:020000040000fa
:0400e80046030000cb
:020000040000fa
:0400ec0046030000c7
:020000040000fa
:0400f00046030000c3
:020000040000fa
:0400f40046030000bf
:020000040000fa
:0400f80046030000bb
:020000040000fa
:0400fc0046030000b7
:020000040000fa
:0401000046030000b2
:020000040000fa
:0401040046030000ae
:020000040000fa
:0401080046030000aa
:020000040000fa
:04010c0046030000a6
:020000040000fa
:0401100046030000a2
:020000040000fa
:04011400460300009e
:020000040000fa
:04011800460300009a
:020000040000fa
:04011c004603000096
:020000040000fa
:040120004603000092
:020000040000fa
:04012400460300008e
:020000040000fa
:04012800460300008a
:020000040000fa
:04012c004603000086
:020000040000fa
:040130004603000082
:020000040000fa
:04013400460300007e
:020000040000fa
:04013800460300007a
:020000040000fa
:04013c004603000076
:020000040000fa
:040140004603000072
:020000040000fa
:04014400460300006e
:020000040000fa
:04014800460300006a
:020000040000fa
:04014c004603000066
:020000040000fa
:040150004603000062
:020000040000fa
:04015400460300005e
:020000040000fa
:04015800460300005a
:020000040000fa
:04015c004603000056
:020000040000fa
:040160004203000056
:020000040000fa
:04016400ee020000a7
:020000040000fa
:0402080046030000a9
:020000040000fa
:04020c0046030000a5
:020000040000fa
:0402100046030000a1
:020000040000fa
:04021400460300009d
:020000040000fa
:040218004603000099
:020000040000fa
:04021c004603000095
:020000040000fa
:040220004603000091
:020000040000fa
:04022400460300008d
:020000040000fa
:040228004603000089
:020000040000fa
:04022c004603000085
:020000040000fa
:040230004603000081
:020000040000fa
:04023400460300007d
:020000040000fa
:040238004603000079
:020000040000fa
:04023c004603000075
:020000040000fa
:040240004603000071
:020000040000fa
:04024400460300006d
:020000040000fa
:040248004603000069
:020000040000fa
:04024c004603000065
:020000040000fa
:040250004603000061
:020000040000fa
:04025400460300005d
:020000040000fa
:040258004603000059
:020000040000fa
:04025c004603000055
:020000040000fa
:040260004603000051
:020000040000fa
:04026400460300004d
:020000040000fa
:040268004603000049
:020000040000fa
:04026c004603000045
:020000040000fa
:040270004603000041
:020000040000fa
:04027400460300003d
:020000040000fa
:040278004603000039
:020000040000fa
:04027c004603000035
:020000040000fa
:040280004603000031
:020000040000fa
:04028400460300002d
:020000040000fa
:040288004603000029
:020000040000fa
:04028c004603000025
:020000040000fa
:040290004603000021
:020000040000fa
:04029400460300001d
:020000040000fa
:040298004603000019
:020000040000fa
:04029c004603000015
:020000040000fa
:0402a0004603000011
:020000040000fa
:0402a400460300000d
:020000040000fa
:0402a8004603000009
:020000040000fa
:0402ac004603000005
:020000040000fa
:0402b0004603000001
:020000040000fa
:0402b40046030000fd
:020000040000fa
:0402b80046030000f9
:020000040000fa
:0402bc0046030000f5
:020000040000fa
:0402c00046030000f1
:020000040000fa
:0402c40046030000ed
:020000040000fa
:0402c80046030000e9
:020000040000fa
:0402cc0046030000e5
:020000040000fa
:0402d00046030000e1
:020000040000fa
:0402d40046030000dd
:020000040000fa
:0402d80046030000d9
:020000040000fa
:0402dc0046030000d5
:020000040000fa
:0402e00046030000d1
:020000040000fa
:0402e40046030000cd
:020000040000fa
:0402e80046030000c9
:020000040000fa
:0402ec0046030000c5
:020000040000fa
:0402f00046030000c1
:020000040000fa
:0402f40046030000bd
:020000040000fa
:0402f80046030000b9
:020000040000fa
:0402fc0046030000b5
:020000040000fa
:0403000046030000b0
:020000040000fa
:0403040046030000ac
:020000040000fa
:0403080046030000a8
:020000040000fa
:04030c0046030000a4
:020000040000fa
:0403100046030000a0
:020000040000fa
:04031400460300009c
:020000040000fa
:040318004603000098
:020000040000fa
:04031c004603000094
:020000040000fa
:040320004603000090
:020000040000fa
:04032400460300008c
:020000040000fa
:040328004603000088
:020000040000fa
:04032c004603000084
:020000040000fa
:040330004603000080
:020000040000fa
:04033400460300007c
:020000040000fa
:040338004603000078
:020000040000fa
:04033c004603000074
:020000040000fa
:040340004603000070
:020000040000fa
:04034400460300006c
:020000040000fa
:040348004603000068
:020000040000fa
:04034c004603000064
:020000040000fa
:040350004603000060
:020000040000fa
:04035400460300005c
:020000040000fa
:040358004603000058
:020000040000fa
:04035c004603000054
:020000040000fa
:040360004603000050
:020000040000fa
:04036400460300004c
:020000040000fa
:100400008f8021000e7f24000e0188000000000074
:10041000000020000000e000020032000001200087
:100420002002880014000700a70007000000e00079
:1004300003003a00e0bc2000010020000200370069
:100440000000200001002000810f70000100320038
:1004500014000700000020000000e000020032004d
:100460000000020000000000660b02000000000017
:100470000040da000000fe004440a9000080200097
:100480000000e0000300320000002000a00188000e
:100490004440a800000006008a1f78008b1f7800e7
:1004a0000000060091018800800478000000eb0045
:1004b0001a003700e284440032a0b4009905ba0063
:1004c000e284440032a0b4009906ba00e2844400f9
:1004d00032a0b4000006eb00476fde00fd07b2005b
:1004e000636ce10003003a00ebff07000000eb0043
:1004f0000a003700606ce10004003a00005deb0088
:100500008b05e900fdff3e00040037006168e10053
:10051000010032000086eb000b00070019c7ba008b
:100520001905ba000e04e00003003a000a00e000da
:10053000e0ff3a0000000600fe07b2009e018800be
:100540008a047800f5ff3700395dba008b05e900b1
:100550000c003200295dba008b05e900080032006a
:100560000c00e00003003a00e284440032a0b40032
:10057000f5ff370019ddba008b05e900faff3a00f4
:100580008904e800e184440032a0b40000000600c1
:10059000801f780085a0a900608021001004e00081
:1005a00006003a000018800010c08800505020005b
:1005b000401988002023a80004003700001880009c
:1005c00020c0880040402000401988006080210041
:1005d0001004a2004f007800004006003600f8002a
:1005e000809fbe00829fbe00849fbe00869fbe008b
:1005f000889fbe008de0a90012c080002023a800c3
:1006000000408000288020008000400081004400dd
:10061000820878000020b00000004000023478001a
:1006200022002100002020004a03020000000000f8
:100630008004780001408000818040008880400074
:1006400022402100002020004a0302000000000098
:10065000014080008100e900f11fb20001408800e4
:10066000c91f8800b01f88004f04be004f03be00a2
:100670004f02be004f01be004f00be003600f90021
:10068000004006008dc0a900004006000040da00ce
:100690000000fe004400f800040f2000240288003f
:1006a0000000e9001201c300008008000200000001
:1006b00031027800b20278001201c0000000cd00c3
:0c06c0004400f9000000060000000500e6
:020000040000fa
:1006cc00000000000000000000000000000000001e
:1006dc00000000000000000000000000000000000e
:1006ec0000000000000000000000000000000000fe
:1006fc0000000000000000000000000000000000ee
:10070c0000000000000000000000000000000000dd
:10071c0000000000ffff00000000000000000000cf
:10072c00ffff0000ffff00000000000000000000c1
:10073c00ffff0000000000000100000000000000ae
:10074c00000000000100000001000000000000009b
:10075c000100000002000000010000000000000089
:10076c000200000002000000000000000100000078
:10077c000300000000000000ffff0000010000006b
:10078c0001000000fdff0000feff00000100000062
:10079c00feff0000fbff0000ffff0000ffff00005a
:1007ac00faff0000fcff000000000000fcff00004e
:1007bc00faff0000ffff000000000000fbff00003c
:1007cc00fdff00000300000000000000fcff000023
:1007dc000300000006000000ffff00000100000005
:1007ec000a000000050000000000000009000000e5
:1007fc000c00000002000000030000000d000000cf
:10080c0006000000fdff0000070000000a000000c9
:10081c00fcff0000fcff000007000000ffff0000d1
:10082c00f3ff0000fdff000002000000f1ff0000dc
:10083c00f0ff0000ffff0000f7ff0000e9ff0000e1
:10084c00f7ff000000000000eeff0000edff0000cd
:10085c0003000000fdff0000edff0000ffff0000a3
:10086c000d000000faff0000f9ff00001500000069
:10087c0010000000fbff00000f0000002200000031
:10088c000900000004000000230000001c00000010
:10089c00ffff000012000000260000000500000011
:1008ac00f9ff00001a00000011000000e9ff000031
:1008bc00fbff000012000000ebff0000d9ff00005e
:1008cc0000000000f8ff0000caff0000dfff00007e
:1008dc0000000000d8ff0000c4ff0000f7ff00007c
:1008ec00f7ff0000c6ff0000e2ff0000120000004e
:1008fc00ebff0000d6ff0000160000001f000000f8
:10090c00e8ff000007000000430000001800000092
:10091c00fbff0000420000004d000000070000003b
:10092c0020000000610000002b000000fbff000015
:10093c00420000004b000000efff0000fdff000034
:10094c004400000001000000bdff00000800000092
:10095c0015000000a8ff0000b3ff00000a00000013
:10096c00c5ff000077ff0000d3ff0000f3ff00007d
:10097c0081ff000091ff000007000000cdff000088
:10098c007bff0000f0ff00002c000000b4ff000013
:10099c00caff0000610000002d000000ccff000029
:1009ac0052000000a1000000140000001d00000017
:1009bc00c60000008800000000000000830000005a
:1009cc00d80000002100000008000000bb0000005f
:1009dc0067000000aaff000027000000850000004f
:1009ec00a3ff00006aff000036000000deff0000dd
:1009fc00f6fe000083ff00000900000012ff00005b
:100a0c00cffe0000daff00009fff00009ffe0000f9
:100a1c0059ff00002f00000031ff0000f0fe000025
:100a2c00570000004700000023ff00000e000000ec
:100a3c003d01000022000000c0ff00007d0100000d
:100a4c0081010000fbff0000f100000069020000c2
:100a5c00eb0000001d000000200200000f0200004f
:100a6c00c2ff00009d000000680200003900000079
:100a7c00aafe0000210100000201000077fd000029
:100a8c0047fe0000ef000000c0fd00000afb000064
:100a9c00dafe000026ff00004ef9000085fa000087
:100aac0016000000dbfa000007f5000018fe00003d
:100abc004d01000068f0000067f20000c71d000047
:100acc00663b0000c61d000068f2000069f00000e3
:100adc004d01000019fe000009f50000dcfa0000d1
:100aec001600000086fa000051f9000026ff0000f5
:100afc00dafe00000cfb0000c1fd0000ef0000005e
:100b0c0048fe000079fd00000201000021010000f8
:100b1c00abfe000039000000670200009c000000e2
:100b2c00c2ff00000e0200001e0200001d000000ab
:100b3c00ea00000067020000f0000000fbff00006c
:100b4c007f0100007c010000c1ff000022000000ba
:100b5c003c0100000e00000025ff000047000000d3
:100b6c0056000000f2fe000032ff00002e000000d4
:100b7c005aff0000a1fe00009fff0000dbff0000f9
:100b8c00d1fe000013ff00000900000084ff0000ec
:100b9c00f8fe0000deff0000360000006bff0000d6
:100bac00a4ff00008400000027000000abff000041
:100bbc0067000000b90000000800000021000000e0
:100bcc00d60000008200000000000000860000003b
:100bdc00c40000001d00000014000000a000000074
:100bec0051000000cdff00002d000000600000004f
:100bfc00cbff0000b5ff00002c000000f0ff000050
:100c0c007cff0000ceff00000700000092ff0000f8
:100c1c0082ff0000f4ff0000d4ff000079ff000009
:100c2c00c6ff00000a000000b3ff0000a9ff00008f
:100c3c001500000008000000beff000001000000cd
:100c4c0043000000fdff0000efff00004a00000021
:100c5c0041000000fbff00002a00000060000000c3
:100c6c0020000000070000004c00000041000000c4
:100c7c00fbff00001800000042000000070000000d
:100c8c00e8ff00001e00000016000000d7ff000067
:100c9c00ebff000011000000e2ff0000c7ff0000a6
:100cac00f7ff0000f7ff0000c5ff0000d8ff0000b1
:100cbc0000000000e0ff0000cbff0000f8ff000088
:100ccc0000000000daff0000ecff00001200000042
:100cdc00fbff0000eaff0000100000001a000000fb
:100cec00faff0000050000002500000012000000c3
:100cfc00ffff00001c0000002200000004000000a8
:100d0c0009000000210000000f000000fbff0000a4
:100d1c000f00000014000000f9ff0000faff0000b3
:100d2c000d000000ffff0000edff0000fdff0000c4
:100d3c0003000000eeff0000eeff000000000000ca
:100d4c00f7ff0000e9ff0000f8ff0000ffff0000c4
:100d5c00f0ff0000f1ff000002000000fdff0000aa
:100d6c00f3ff0000ffff000007000000fcff000085
:100d7c00fcff00000a00000006000000feff00005f
:100d8c00060000000d00000003000000020000003f
:100d9c000b0000000800000000000000050000002f
:100dac000a00000001000000ffff00000600000028
:100dbc0003000000fcff0000000000000300000026
:100dcc00fdff0000fbff000000000000ffff000023
:100ddc00faff0000fdff000000000000fcff000017
:100dec00fbff0000ffff0000ffff0000fcff000006
:100dfc00feff000001000000ffff0000feff0000ee
:100e0c000100000001000000ffff000000000000d6
:100e1c0003000000010000000000000002000000c0
:100e2c0002000000000000000100000002000000b1
:100e3c0001000000000000000100000001000000a3
:100e4c000000000000000000010000000000000095
:100e5c00ffff00000000000000000000ffff00008a
:100e6c00000000000000000000000000ffff000078
:100e7c000000000000000000000000000000000066
:100e8c000000000000000000000000000000000056
:100e9c000000000000000000000000000000000046
:100eac000000000000000000000000000000000036
:100ebc000000000000000000000000000000000026
:100ecc000000000000000000000000000000000016
:100edc000000000000000000000000000000000006
:100eec0000000000000000000000000000000000f6
:100efc0000000000000000000000000000000000e6
:100f0c0000000000000000000000000000000000d5
:100f1c000000000000000000ffff000000000000c7
:100f2c0000000000ffff0000ffff000000000000b9
:100f3c0000000000ffff0000ffff000000000000a9
:100f4c00ffff0000ffff0000000000000000000099
:100f5c00ffff000000000000010000000000000086
:100f6c00ffff000002000000020000000000000073
:100f7c00020000000300000001000000000000005f
:100f8c00040000000300000000000000020000004c
:100f9c000400000001000000ffff0000030000003f
:100fac0002000000fdff0000ffff00000200000037
:100fbc00fdff0000faff000000000000ffff000032
:100fcc00f8ff0000fbff000000000000faff00002b
:100fdc00f7ff0000ffff0000ffff0000f7ff00001d
:100fec00fbff000003000000fdff0000f9ff000004
:100ffc000400000006000000fcff000001000000df
:10100c000c00000005000000ffff00000c000000b9
:10101c000e0000000100000006000000120000009d
:10102c0008000000ffff00000c0000000e00000094
:10103c00fcff0000feff00000d000000000000009f
:10104c00f2ff00000100000004000000eeff0000b1
:10105c00efff000001000000f4ff0000e3ff0000c0
:10106c00f6ff0000feff0000e6ff0000e8ff0000b6
:10107c0002000000f6ff0000e4ff0000fdff00008e
:10108c000b000000f1ff0000f5ff0000160000004f
:10109c000c000000f6ff000012000000250000000c
:1010ac0006000000060000002d00000020000000db
:1010bc00000000001c0000003100000007000000d0
:1010cc00000000002900000017000000ebff0000ea
:1010dc00060000001d000000eaff0000dbff00001e
:1010ec000a000000f8ff0000c3ff0000e1ff000051
:1010fc0002000000cbff0000bbff0000f7ff000068
:10110c00ecff0000b3ff0000dbff00000c00000050
:10111c00d7ff0000c7ff00001400000014000000ff
:10112c00d5ff000004000000450000000c0000008a
:10113c00f5ff00004e000000500000000100000010
:10114c002d000000760000002e00000003000000bf
:10115c005f0000005d000000f4ff000015000000bf
:10116c006200000008000000c5ff00002500000020
:10117c0023000000a2ff0000bdff00001b000000c8
:10118c00b9ff000068ff0000dbff0000ebff000070
:10119c005eff000082ff000003000000a8ff0000bb
:1011ac0053ff0000e7ff00001600000083ff000063
:1011bc00b4ff00005e0000000b000000a9ff00005f
:1011cc0059000000a1000000f7ff00002200000001
:1011dc00e900000089000000ffff0000b6000000dd
:1011ec000401000026000000300000000601000091
:1011fc0086000000baff00006e000000c100000075
:10120c00a4ff000086ff000079000000e4ff00004e
:10121c00d9fe0000a2ff00001c000000d0fe000060
:10122c00a5fe0000e6ff000061ff00002dfe00009f
:10123c0037ff00000f000000aafe000087fe000030
:10124c004d000000f3ff00008efe0000f5ff0000d3
:10125c004d010000b3ff00007fff0000e40100001f
:10126c00a1010000b5ff0000670100004803000069
:10127c000b0100005e0000007a0300000d0300006b
:10128c00d5ff0000b90100005604000095000000d5
:10129c00abfe0000270300004e020000e2fb000042
:1012ac0038fe000020030000f9fa00009cf4000056
:1012bc00c3fe000099fc000000de000005d4000015
:1012cc0000000000fa2b0000fe2100006603000065
:1012dc003d010000630b000006050000e0fc00006f
:1012ec00c70100001d040000b3fd0000dafc000083
:1012fc00550100006bff0000acfb000048fe000035
:10130c002b000000f5fc000088fc0000a3ff00008f
:10131c00f6fe0000bafc00009afe00004b00000034
:10132c0060fe00001efe0000810000004c0000006a
:10133c00b4fe00000b000000710100000d00000065
:10134c00b4ff00007701000055010000f1ff000020
:10135c00c8000000d10100009f0000001a0000002e
:10136c00590100002e010000e4ff00005e000000a7
:10137c00250100001c00000087ff00007900000020
:10138c005c00000040ff000093ff000045000000df
:10139c007bff0000fcfe0000d1ff0000daff000024
:1013ac00fefe00004cff00000100000078ff000072
:1013bc0019ff0000dfff00000900000060ff0000c3
:1013cc00a7ff000056000000f5ff0000a3ff00007f
:1013dc004c0000007c000000eaff00001900000037
:1013ec00ab00000057000000fdff00007d00000076
:1013fc00a10000001500000025000000970000006f
:10140c0047000000e5ff0000420000005d00000006
:10141c00ddff0000dbff00003a000000f9ff0000d8
:10142c009fff0000ebff00000c000000a4ff000079
:10143c00a2ff0000fdff0000d3ff00008bff0000a7
:10144c00d3ff0000ffff0000b1ff0000b3ff00005e
:10145c000b000000f5ff0000bcff0000fcff0000cb
:10146c002b000000edff0000ecff00003900000035
:10147c0029000000f4ff0000240000004c000000d4
:10148c0013000000090000004400000034000000bc
:10149c00feff00001e0000003c00000008000000e1
:1014ac00f6ff00002400000016000000e4ff00001e
:1014bc00faff000015000000e9ff0000d8ff000053
:1014cc0000000000f9ff0000d0ff0000e4ff000066
:1014dc0000000000e1ff0000d4ff0000faff000054
:1014ec00faff0000dbff0000eeff00000a00000026
:1014fc00f4ff0000eaff00000b0000000f000000ea
:10150c00f5ff0000030000001b00000009000000b4
:10151c00feff0000170000001a000000020000008f
:10152c000a0000001c0000000c000000ffff00007f
:10153c001000000012000000fcff0000ffff000084
:10154c000e00000000000000f4ff0000010000008d
:10155c0004000000f2ff0000f5ff00000100000095
:10156c00f8ff0000efff0000fbff0000ffff000092
:10157c00f2ff0000f5ff000001000000fbff00007f
:10158c00f4ff0000ffff000003000000faff000062
:10159c00fcff00000600000003000000fdff00003f
:1015ac000500000008000000010000000100000020
:1015bc00090000000600000000000000050000000b
:1015cc000700000001000000000000000500000002
:1015dc0003000000feff00000100000003000000fb
:1015ec00feff0000fdff000001000000ffff0000f7
:1015fc00fcff0000feff000000000000fdff0000eb
:10160c00fcff000000000000ffff0000fdff0000d9
:10161c00ffff000000000000feff0000feff0000c6
:10162c000100000000000000ffff000000000000af
:10163c00010000000000000000000000010000009c
:10164c00010000000000000001000000010000008b
:10165c00000000000000000001000000010000007c
:10166c00000000000000000001000000000000006d
:10167c00000000000000000000000000000000005e
:10168c00000000000000000000000000000000004e
:10169c00000000000000000000000000000000003e
:1016ac00000000000000000000000000000000002e
:1016bc00000000000000000000000000000000001e
:020000040000fa
:1016cc0000fe2f004427b600f0f32f004427b6008d
:1016dc00a0022000303a8800007e2000001988000b
:1016ec002223ef002002b00020198800e03fb10057
:1016fc0040198800f0fc2f006019880021e3a80035
:10170c00608021000048eb0085a0a90000072000a4
:10171c00aa20b70095a0a8002023a80000702000e4
:10172c00503a8800f2e3a800f3e3a800f243a900c2
:10173c00f343a90000f82f00f003b600b003b30088
:10174c00801f8800f103a800f423ef00f823ef00ba
:10175c00f623ef00f1e3a8008de0a9008dc0a900ed
:10176c009de0a8009dc0a90044362800030021007c
:10177c00427628000140210000202000d429780066
:10178c00d22878000000e900fcff3a00ffff370088
:020000040000fa
:10179c00000800000810000000000000000000001d
:020000040000fa
:0200000401f009
:04000000ffff0000fe
:020000040000fa
:0200000401f009
:04000400ffff0000fa
:020000040000fa
:0200000401f009
:04000800ffff0000f6
:020000040000fa
:0200000401f009
:04000c00810000006f
:020000040000fa
:0200000401f009
:04001000a300000049
:020000040000fa
:0200000401f009
:040014005f00000089
:020000040000fa
:0200000401f009
:04001800f7000000ed
:020000040000fa
:0200000401f009
:04001c00dfff000002
:00000001FF
